:1000000014C0C9C02BC02AC029C028C03CC026C00B
:1000100025C024C023C022C021C07FC01FC01EC075
:100020001DC01CC01BC01AC019C011241FBECFEDBB
:10003000CDBF10E0A0E6B0E0EEE1F5E002C0059033
:100040000D92A236B107D9F720E0A2E6B0E001C0D8
:100050001D92AF37B207E1F763D15FC2D1CF98B33A
:1000600021E030E001C0220F8A95EAF7922B98BB7D
:10007000613009F4969A81E08093750010927400C3
:100080001092730008951F920F920FB60F921124D1
:100090002F933F938F939F93AF93BF9380917B0058
:1000A00090917C00A0917D00B0917E0030917A000B
:1000B00026E0230F2D3768F129E8230F0396A11DB1
:1000C000B11D20937A0080937B0090937C00A093D5
:1000D0007D00B0937E008091760090917700A09192
:1000E0007800B09179000196A11DB11D8093760032
:1000F00090937700A0937800B0937900BF91AF916F
:100100009F918F913F912F910F900FBE0F901F9055
:1001100018950296A11DB11DD4CF1F920F920FB654
:100120000F9211242F933F938F939F9380916B0095
:1001300090916C009C012F5F3F4F30936C00209397
:100140006B008131974210F010926A008091680034
:1001500090916900892B69F0809168009091690005
:1001600001979093690080936800892B11F4109295
:100170006A008091730090917400019690937400CE
:10018000809373009F918F913F912F910F900FBE9D
:100190000F901F9018951F920F920FB60F92112477
:1001A0002F933F934F935F936F937F938F939F937F
:1001B000AF93BF9380916B0090916C0010926C0094
:1001C00010926B0020B3247030916A003130D9F066
:1001D000A0F0323009F49DC0333041F1BF91AF91AE
:1001E0009F918F917F916F915F914F913F912F914F
:1001F0000F900FBE0F901F90189581E02111EECF48
:1002000080936A00EBCF2223E1F0805992408F392E
:100210009105B8F483E080936A001092670088E843
:1002200093E19093690080936800D8CF3091670084
:10023000313039F140F0323009F45AC0333009F42A
:1002400054C082E0DDCF2111FCCF9C012B54314002
:100250002D31310570F481E08093670010926600C3
:100260001092620010926300109264001092650078
:10027000B5CF8C5991094D9720F782E080936700A4
:10028000ADCF309166003032E0F62111A7CF21E0EA
:10029000230F2093660041E050E060E070E08A3573
:1002A000910518F440E050E0BA0104C0440F551F16
:1002B000661F771F3A95D2F7809162009091630094
:1002C000A0916400B0916500842B952BA62BB72BD1
:1002D0008093620090936300A0936400B0936500E4
:1002E000203209F07BCF83E0C9CF2111C6CFA9CF3F
:1002F0008091620090916300A0916400B0916500CC
:1003000080936D0090936E00A0936F00B093700087
:1003100098CF10926A0010926900109268005ECF28
:1003200083E080BF83BF789489B7826089BF87B339
:100330008FEF87BB8E9A8A98929812BE82E080BF18
:1003400091E093BF83B5816083BD88E686BF98BF87
:1003500089B7816089BF8BB780648BBF85B78D7F7C
:1003600085BF85B7816085BF7894809175008130A5
:1003700081F420917300309174008091600090911D
:1003800061002817390728F088B318BA9698109298
:10039000750080916D0090916E00A0916F00B091FA
:1003A0007000892B8A2B8B2B01F340916D005091AB
:1003B0006E0060916F0070917000409372008091A8
:1003C0006D0090916E00A0916F00B0917000CD0112
:1003D000AA27BB278093710010926D0010926E00C7
:1003E00010926F00109270004D3A29F48B3019F47E
:1003F00060E086E034DE809172008D3A39F48091BD
:1004000071008A3019F460E085E029DE8091720085
:100410008D3A39F480917100823119F460E087E0FF
:100420001EDE809172008F3A39F480917100803322
:1004300019F460E081E013DE809172008F3A39F4A4
:1004400080917100873619F461E080E008DE8091C8
:1004500072008D3A39F4809171008D3019F461E0A9
:1004600082E0FDDD809172008D3A39F48091710057
:100470008A3119F460E080E0F2DD809172008D3AFB
:1004800039F480917100883519F461E087E0E7DD87
:10049000809172008F3A39F4809171008D3619F491
:1004A00060E082E0DCDD809172008D3A39F4809169
:1004B0007100823419F460E084E0D1DD8091720033
:1004C0008D3A39F480917100833419F460E083E04F
:1004D000C6DD809172008D3A39F4809171008034CC
:1004E00019F461E084E0BBDD809172008D3A39F44B
:1004F00080917100813419F461E083E0B0DD809176
:1005000072008F3A09F031CF80917100803209F08A
:0E0510002CCF61E086E0A3DD28CFF894FFCF6A
:02051E001027A4
:00000001FF
